{"abi":[{"type":"constructor","inputs":[{"name":"token","type":"address","internalType":"address"}],"stateMutability":"nonpayable"},{"type":"function","name":"balance","inputs":[{"name":"","type":"address","internalType":"address"}],"outputs":[{"name":"","type":"uint256","internalType":"uint256"}],"stateMutability":"view"},{"type":"function","name":"deposit","inputs":[{"name":"value","type":"uint256","internalType":"uint256"}],"outputs":[],"stateMutability":"nonpayable"},{"type":"function","name":"my_token","inputs":[],"outputs":[{"name":"","type":"address","internalType":"contract IERC20"}],"stateMutability":"view"},{"type":"function","name":"owner","inputs":[],"outputs":[{"name":"","type":"address","internalType":"address"}],"stateMutability":"view"},{"type":"function","name":"tokenReceive","inputs":[{"name":"amount","type":"uint256","internalType":"uint256"}],"outputs":[],"stateMutability":"nonpayable"},{"type":"function","name":"withdraw","inputs":[],"outputs":[],"stateMutability":"nonpayable"},{"type":"error","name":"AddressEmptyCode","inputs":[{"name":"target","type":"address","internalType":"address"}]},{"type":"error","name":"AddressInsufficientBalance","inputs":[{"name":"account","type":"address","internalType":"address"}]},{"type":"error","name":"FailedInnerCall","inputs":[]},{"type":"error","name":"SafeERC20FailedOperation","inputs":[{"name":"token","type":"address","internalType":"address"}]}],"bytecode":{"object":"0x608060405234801561001057600080fd5b5060405161070638038061070683398101604081905261002f91610062565b60028054336001600160a01b031991821617909155600080549091166001600160a01b0392909216919091179055610092565b60006020828403121561007457600080fd5b81516001600160a01b038116811461008b57600080fd5b9392505050565b610665806100a16000396000f3fe608060405234801561001057600080fd5b50600436106100625760003560e01c8063295899ed14610067578063303599511461007c5780633ccfd60b146100ac5780638da5cb5b146100b4578063b6b55f25146100c7578063e3d670d7146100da575b600080fd5b61007a610075366004610562565b610108565b005b60005461008f906001600160a01b031681565b6040516001600160a01b0390911681526020015b60405180910390f35b61007a610114565b60025461008f906001600160a01b031681565b61007a6100d5366004610562565b61022a565b6100fa6100e836600461057b565b60016020526000908152604090205481565b6040519081526020016100a3565b6101118161022a565b50565b6002546001600160a01b031633146101615760405162461bcd60e51b815260206004820152600b60248201526a6e6f74206f776e6572212160a81b60448201526064015b60405180910390fd5b600080546040516370a0823160e01b81523060048201526001600160a01b03909116906370a0823190602401602060405180830381865afa1580156101aa573d6000803e3d6000fd5b505050506040513d601f19601f820116820180604052508101906101ce91906105a4565b90508060001061020d5760405162461bcd60e51b815260206004820152600a6024820152694e6f2062616c616e636560b01b6044820152606401610158565b600254600054610111916001600160a01b03918216911683610321565b600054604051636eb1769f60e11b81523360048201523060248201526001600160a01b039091169063dd62ed3e90604401602060405180830381865afa158015610278573d6000803e3d6000fd5b505050506040513d601f19601f8201168201806040525081019061029c91906105a4565b8111156102e25760405162461bcd60e51b81526020600482015260146024820152730c2d8d8deeec2dcc6ca40dcdee840cadcdeeaced60631b6044820152606401610158565b6000546102fa906001600160a01b0316333084610385565b33600090815260016020526040812080548392906103199084906105bd565b909155505050565b6040516001600160a01b0383811660248301526044820183905261038091859182169063a9059cbb906064015b604051602081830303815290604052915060e01b6020820180516001600160e01b0383818316178352505050506103c4565b505050565b6040516001600160a01b0384811660248301528381166044830152606482018390526103be9186918216906323b872dd9060840161034e565b50505050565b60006103d96001600160a01b03841683610427565b905080516000141580156103fe5750808060200190518101906103fc91906105de565b155b1561038057604051635274afe760e01b81526001600160a01b0384166004820152602401610158565b60606104358383600061043e565b90505b92915050565b6060814710156104635760405163cd78605960e01b8152306004820152602401610158565b600080856001600160a01b0316848660405161047f9190610600565b60006040518083038185875af1925050503d80600081146104bc576040519150601f19603f3d011682016040523d82523d6000602084013e6104c1565b606091505b50915091506104d18683836104dd565b925050505b9392505050565b6060826104f2576104ed82610539565b6104d6565b815115801561050957506001600160a01b0384163b155b1561053257604051639996b31560e01b81526001600160a01b0385166004820152602401610158565b50806104d6565b8051156105495780518082602001fd5b604051630a12f52160e11b815260040160405180910390fd5b60006020828403121561057457600080fd5b5035919050565b60006020828403121561058d57600080fd5b81356001600160a01b03811681146104d657600080fd5b6000602082840312156105b657600080fd5b5051919050565b8082018082111561043857634e487b7160e01b600052601160045260246000fd5b6000602082840312156105f057600080fd5b815180151581146104d657600080fd5b6000825160005b818110156106215760208186018101518583015201610607565b50600092019182525091905056fea2646970667358221220114db59fc19d6dabad85b0dcdac55fd5eb328cebb530d2c53880fc23836f033364736f6c63430008170033","linkReferences":{}},"methodIdentifiers":{"balance(address)":"e3d670d7","deposit(uint256)":"b6b55f25","my_token()":"30359951","owner()":"8da5cb5b","tokenReceive(uint256)":"295899ed","withdraw()":"3ccfd60b"},"id":28}