{"abi":[{"type":"constructor","inputs":[{"name":"initialOwner","type":"address","internalType":"address"}],"stateMutability":"nonpayable"},{"type":"function","name":"approve","inputs":[{"name":"to","type":"address","internalType":"address"},{"name":"tokenId","type":"uint256","internalType":"uint256"}],"outputs":[],"stateMutability":"nonpayable"},{"type":"function","name":"balanceOf","inputs":[{"name":"owner","type":"address","internalType":"address"}],"outputs":[{"name":"","type":"uint256","internalType":"uint256"}],"stateMutability":"view"},{"type":"function","name":"burn","inputs":[{"name":"tokenId","type":"uint256","internalType":"uint256"}],"outputs":[],"stateMutability":"nonpayable"},{"type":"function","name":"getApproved","inputs":[{"name":"tokenId","type":"uint256","internalType":"uint256"}],"outputs":[{"name":"","type":"address","internalType":"address"}],"stateMutability":"view"},{"type":"function","name":"isApprovedForAll","inputs":[{"name":"owner","type":"address","internalType":"address"},{"name":"operator","type":"address","internalType":"address"}],"outputs":[{"name":"","type":"bool","internalType":"bool"}],"stateMutability":"view"},{"type":"function","name":"name","inputs":[],"outputs":[{"name":"","type":"string","internalType":"string"}],"stateMutability":"view"},{"type":"function","name":"owner","inputs":[],"outputs":[{"name":"","type":"address","internalType":"address"}],"stateMutability":"view"},{"type":"function","name":"ownerOf","inputs":[{"name":"tokenId","type":"uint256","internalType":"uint256"}],"outputs":[{"name":"","type":"address","internalType":"address"}],"stateMutability":"view"},{"type":"function","name":"renounceOwnership","inputs":[],"outputs":[],"stateMutability":"nonpayable"},{"type":"function","name":"safeMint","inputs":[{"name":"to","type":"address","internalType":"address"},{"name":"uri","type":"string","internalType":"string"}],"outputs":[],"stateMutability":"nonpayable"},{"type":"function","name":"safeTransferFrom","inputs":[{"name":"from","type":"address","internalType":"address"},{"name":"to","type":"address","internalType":"address"},{"name":"tokenId","type":"uint256","internalType":"uint256"}],"outputs":[],"stateMutability":"nonpayable"},{"type":"function","name":"safeTransferFrom","inputs":[{"name":"from","type":"address","internalType":"address"},{"name":"to","type":"address","internalType":"address"},{"name":"tokenId","type":"uint256","internalType":"uint256"},{"name":"data","type":"bytes","internalType":"bytes"}],"outputs":[],"stateMutability":"nonpayable"},{"type":"function","name":"setApprovalForAll","inputs":[{"name":"operator","type":"address","internalType":"address"},{"name":"approved","type":"bool","internalType":"bool"}],"outputs":[],"stateMutability":"nonpayable"},{"type":"function","name":"supportsInterface","inputs":[{"name":"interfaceId","type":"bytes4","internalType":"bytes4"}],"outputs":[{"name":"","type":"bool","internalType":"bool"}],"stateMutability":"view"},{"type":"function","name":"symbol","inputs":[],"outputs":[{"name":"","type":"string","internalType":"string"}],"stateMutability":"view"},{"type":"function","name":"tokenURI","inputs":[{"name":"tokenId","type":"uint256","internalType":"uint256"}],"outputs":[{"name":"","type":"string","internalType":"string"}],"stateMutability":"view"},{"type":"function","name":"transferFrom","inputs":[{"name":"from","type":"address","internalType":"address"},{"name":"to","type":"address","internalType":"address"},{"name":"tokenId","type":"uint256","internalType":"uint256"}],"outputs":[],"stateMutability":"nonpayable"},{"type":"function","name":"transferOwnership","inputs":[{"name":"newOwner","type":"address","internalType":"address"}],"outputs":[],"stateMutability":"nonpayable"},{"type":"event","name":"Approval","inputs":[{"name":"owner","type":"address","indexed":true,"internalType":"address"},{"name":"approved","type":"address","indexed":true,"internalType":"address"},{"name":"tokenId","type":"uint256","indexed":true,"internalType":"uint256"}],"anonymous":false},{"type":"event","name":"ApprovalForAll","inputs":[{"name":"owner","type":"address","indexed":true,"internalType":"address"},{"name":"operator","type":"address","indexed":true,"internalType":"address"},{"name":"approved","type":"bool","indexed":false,"internalType":"bool"}],"anonymous":false},{"type":"event","name":"BatchMetadataUpdate","inputs":[{"name":"_fromTokenId","type":"uint256","indexed":false,"internalType":"uint256"},{"name":"_toTokenId","type":"uint256","indexed":false,"internalType":"uint256"}],"anonymous":false},{"type":"event","name":"MetadataUpdate","inputs":[{"name":"_tokenId","type":"uint256","indexed":false,"internalType":"uint256"}],"anonymous":false},{"type":"event","name":"OwnershipTransferred","inputs":[{"name":"previousOwner","type":"address","indexed":true,"internalType":"address"},{"name":"newOwner","type":"address","indexed":true,"internalType":"address"}],"anonymous":false},{"type":"event","name":"Transfer","inputs":[{"name":"from","type":"address","indexed":true,"internalType":"address"},{"name":"to","type":"address","indexed":true,"internalType":"address"},{"name":"tokenId","type":"uint256","indexed":true,"internalType":"uint256"}],"anonymous":false},{"type":"error","name":"ERC721IncorrectOwner","inputs":[{"name":"sender","type":"address","internalType":"address"},{"name":"tokenId","type":"uint256","internalType":"uint256"},{"name":"owner","type":"address","internalType":"address"}]},{"type":"error","name":"ERC721InsufficientApproval","inputs":[{"name":"operator","type":"address","internalType":"address"},{"name":"tokenId","type":"uint256","internalType":"uint256"}]},{"type":"error","name":"ERC721InvalidApprover","inputs":[{"name":"approver","type":"address","internalType":"address"}]},{"type":"error","name":"ERC721InvalidOperator","inputs":[{"name":"operator","type":"address","internalType":"address"}]},{"type":"error","name":"ERC721InvalidOwner","inputs":[{"name":"owner","type":"address","internalType":"address"}]},{"type":"error","name":"ERC721InvalidReceiver","inputs":[{"name":"receiver","type":"address","internalType":"address"}]},{"type":"error","name":"ERC721InvalidSender","inputs":[{"name":"sender","type":"address","internalType":"address"}]},{"type":"error","name":"ERC721NonexistentToken","inputs":[{"name":"tokenId","type":"uint256","internalType":"uint256"}]},{"type":"error","name":"OwnableInvalidOwner","inputs":[{"name":"owner","type":"address","internalType":"address"}]},{"type":"error","name":"OwnableUnauthorizedAccount","inputs":[{"name":"account","type":"address","internalType":"address"}]}],"bytecode":{"object":"0x60806040523480156200001157600080fd5b506040516200173b3803806200173b833981016040819052620000349162000129565b806040518060400160405280600881526020016712d85cdbdb93919560c21b8152506040518060400160405280600381526020016225a9a760e91b815250816000908162000083919062000202565b50600162000092828262000202565b5050506001600160a01b038116620000c457604051631e4fbdf760e01b81526000600482015260240160405180910390fd5b620000cf81620000d7565b5050620002ce565b600780546001600160a01b038381166001600160a01b0319831681179093556040519116919082907f8be0079c531659141344cd1fd0a4f28419497f9722a3daafe3b4186f6b6457e090600090a35050565b6000602082840312156200013c57600080fd5b81516001600160a01b03811681146200015457600080fd5b9392505050565b634e487b7160e01b600052604160045260246000fd5b600181811c908216806200018657607f821691505b602082108103620001a757634e487b7160e01b600052602260045260246000fd5b50919050565b601f821115620001fd576000816000526020600020601f850160051c81016020861015620001d85750805b601f850160051c820191505b81811015620001f957828155600101620001e4565b5050505b505050565b81516001600160401b038111156200021e576200021e6200015b565b62000236816200022f845462000171565b84620001ad565b602080601f8311600181146200026e5760008415620002555750858301515b600019600386901b1c1916600185901b178555620001f9565b600085815260208120601f198616915b828110156200029f578886015182559484019460019091019084016200027e565b5085821015620002be5787850151600019600388901b60f8161c191681555b5050505050600190811b01905550565b61145d80620002de6000396000f3fe608060405234801561001057600080fd5b50600436106101165760003560e01c8063715018a6116100a2578063b88d4fde11610071578063b88d4fde14610239578063c87b56dd1461024c578063d204c45e1461025f578063e985e9c514610272578063f2fde38b1461028557600080fd5b8063715018a6146102055780638da5cb5b1461020d57806395d89b411461021e578063a22cb4651461022657600080fd5b806323b872dd116100e957806323b872dd1461019857806342842e0e146101ab57806342966c68146101be5780636352211e146101d157806370a08231146101e457600080fd5b806301ffc9a71461011b57806306fdde0314610143578063081812fc14610158578063095ea7b314610183575b600080fd5b61012e610129366004610f1e565b610298565b60405190151581526020015b60405180910390f35b61014b6102a9565b60405161013a9190610f8b565b61016b610166366004610f9e565b61033b565b6040516001600160a01b03909116815260200161013a565b610196610191366004610fd3565b610364565b005b6101966101a6366004610ffd565b610373565b6101966101b9366004610ffd565b610403565b6101966101cc366004610f9e565b610423565b61016b6101df366004610f9e565b61042f565b6101f76101f2366004611039565b61043a565b60405190815260200161013a565b610196610482565b6007546001600160a01b031661016b565b61014b610496565b610196610234366004611054565b6104a5565b61019661024736600461111c565b6104b0565b61014b61025a366004610f9e565b6104c7565b61019661026d366004611198565b6104d2565b61012e6102803660046111fa565b6104fd565b610196610293366004611039565b61052b565b60006102a382610569565b92915050565b6060600080546102b89061122d565b80601f01602080910402602001604051908101604052809291908181526020018280546102e49061122d565b80156103315780601f1061030657610100808354040283529160200191610331565b820191906000526020600020905b81548152906001019060200180831161031457829003601f168201915b5050505050905090565b60006103468261058e565b506000828152600460205260409020546001600160a01b03166102a3565b61036f8282336105c7565b5050565b6001600160a01b0382166103a257604051633250574960e11b8152600060048201526024015b60405180910390fd5b60006103af8383336105d4565b9050836001600160a01b0316816001600160a01b0316146103fd576040516364283d7b60e01b81526001600160a01b0380861660048301526024820184905282166044820152606401610399565b50505050565b61041e838383604051806020016040528060008152506104b0565b505050565b61036f600082336105d4565b60006102a38261058e565b60006001600160a01b038216610466576040516322718ad960e21b815260006004820152602401610399565b506001600160a01b031660009081526003602052604090205490565b61048a6106cd565b61049460006106fa565b565b6060600180546102b89061122d565b61036f33838361074c565b6104bb848484610373565b6103fd848484846107eb565b60606102a382610914565b60088054600091826104e383611267565b9190505590506104f38382610a25565b61041e8183610a3f565b6001600160a01b03918216600090815260056020908152604080832093909416825291909152205460ff1690565b6105336106cd565b6001600160a01b03811661055d57604051631e4fbdf760e01b815260006004820152602401610399565b610566816106fa565b50565b60006001600160e01b03198216632483248360e11b14806102a357506102a382610a8f565b6000818152600260205260408120546001600160a01b0316806102a357604051637e27328960e01b815260048101849052602401610399565b61041e8383836001610adf565b6000828152600260205260408120546001600160a01b039081169083161561060157610601818486610be5565b6001600160a01b0381161561063f5761061e600085600080610adf565b6001600160a01b038116600090815260036020526040902080546000190190555b6001600160a01b0385161561066e576001600160a01b0385166000908152600360205260409020805460010190555b60008481526002602052604080822080546001600160a01b0319166001600160a01b0389811691821790925591518793918516917fddf252ad1be2c89b69c2b068fc378daa952ba7f163c4a11628f55a4df523b3ef91a4949350505050565b6007546001600160a01b031633146104945760405163118cdaa760e01b8152336004820152602401610399565b600780546001600160a01b038381166001600160a01b0319831681179093556040519116919082907f8be0079c531659141344cd1fd0a4f28419497f9722a3daafe3b4186f6b6457e090600090a35050565b6001600160a01b03821661077e57604051630b61174360e31b81526001600160a01b0383166004820152602401610399565b6001600160a01b03838116600081815260056020908152604080832094871680845294825291829020805460ff191686151590811790915591519182527f17307eab39ab6107e8899845ad3d59bd9653f200f220920489ca2b5937696c31910160405180910390a3505050565b6001600160a01b0383163b156103fd57604051630a85bd0160e11b81526001600160a01b0384169063150b7a029061082d90339088908790879060040161128e565b6020604051808303816000875af1925050508015610868575060408051601f3d908101601f19168201909252610865918101906112cb565b60015b6108d1573d808015610896576040519150601f19603f3d011682016040523d82523d6000602084013e61089b565b606091505b5080516000036108c957604051633250574960e11b81526001600160a01b0385166004820152602401610399565b805181602001fd5b6001600160e01b03198116630a85bd0160e11b1461090d57604051633250574960e11b81526001600160a01b0385166004820152602401610399565b5050505050565b606061091f8261058e565b50600082815260066020526040812080546109399061122d565b80601f01602080910402602001604051908101604052809291908181526020018280546109659061122d565b80156109b25780601f10610987576101008083540402835291602001916109b2565b820191906000526020600020905b81548152906001019060200180831161099557829003601f168201915b5050505050905060006109d060408051602081019091526000815290565b905080516000036109e2575092915050565b815115610a145780826040516020016109fc9291906112e8565b60405160208183030381529060405292505050919050565b610a1d84610c49565b949350505050565b61036f828260405180602001604052806000815250610cbe565b6000828152600660205260409020610a578282611367565b506040518281527ff8e1a15aba9398e019f0b49df1a4fde98ee17ae345cb5f6b5e2c27f5033e8ce79060200160405180910390a15050565b60006001600160e01b031982166380ac58cd60e01b1480610ac057506001600160e01b03198216635b5e139f60e01b145b806102a357506301ffc9a760e01b6001600160e01b03198316146102a3565b8080610af357506001600160a01b03821615155b15610bb5576000610b038461058e565b90506001600160a01b03831615801590610b2f5750826001600160a01b0316816001600160a01b031614155b8015610b425750610b4081846104fd565b155b15610b6b5760405163a9fbf51f60e01b81526001600160a01b0384166004820152602401610399565b8115610bb35783856001600160a01b0316826001600160a01b03167f8c5be1e5ebec7d5bd14f71427d1e84f3dd0314c0f7b2291e5b200ac8c7c3b92560405160405180910390a45b505b5050600090815260046020526040902080546001600160a01b0319166001600160a01b0392909216919091179055565b610bf0838383610cd5565b61041e576001600160a01b038316610c1e57604051637e27328960e01b815260048101829052602401610399565b60405163177e802f60e01b81526001600160a01b038316600482015260248101829052604401610399565b6060610c548261058e565b506000610c6c60408051602081019091526000815290565b90506000815111610c8c5760405180602001604052806000815250610cb7565b80610c9684610d38565b604051602001610ca79291906112e8565b6040516020818303038152906040525b9392505050565b610cc88383610dcb565b61041e60008484846107eb565b60006001600160a01b03831615801590610a1d5750826001600160a01b0316846001600160a01b03161480610d0f5750610d0f84846104fd565b80610a1d5750506000908152600460205260409020546001600160a01b03908116911614919050565b60606000610d4583610e30565b600101905060008167ffffffffffffffff811115610d6557610d65611090565b6040519080825280601f01601f191660200182016040528015610d8f576020820181803683370190505b5090508181016020015b600019016f181899199a1a9b1b9c1cb0b131b232b360811b600a86061a8153600a8504945084610d9957509392505050565b6001600160a01b038216610df557604051633250574960e11b815260006004820152602401610399565b6000610e03838360006105d4565b90506001600160a01b0381161561041e576040516339e3563760e11b815260006004820152602401610399565b60008072184f03e93ff9f4daa797ed6e38ed64bf6a1f0160401b8310610e6f5772184f03e93ff9f4daa797ed6e38ed64bf6a1f0160401b830492506040015b6d04ee2d6d415b85acef81000000008310610e9b576d04ee2d6d415b85acef8100000000830492506020015b662386f26fc100008310610eb957662386f26fc10000830492506010015b6305f5e1008310610ed1576305f5e100830492506008015b6127108310610ee557612710830492506004015b60648310610ef7576064830492506002015b600a83106102a35760010192915050565b6001600160e01b03198116811461056657600080fd5b600060208284031215610f3057600080fd5b8135610cb781610f08565b60005b83811015610f56578181015183820152602001610f3e565b50506000910152565b60008151808452610f77816020860160208601610f3b565b601f01601f19169290920160200192915050565b602081526000610cb76020830184610f5f565b600060208284031215610fb057600080fd5b5035919050565b80356001600160a01b0381168114610fce57600080fd5b919050565b60008060408385031215610fe657600080fd5b610fef83610fb7565b946020939093013593505050565b60008060006060848603121561101257600080fd5b61101b84610fb7565b925061102960208501610fb7565b9150604084013590509250925092565b60006020828403121561104b57600080fd5b610cb782610fb7565b6000806040838503121561106757600080fd5b61107083610fb7565b91506020830135801515811461108557600080fd5b809150509250929050565b634e487b7160e01b600052604160045260246000fd5b600067ffffffffffffffff808411156110c1576110c1611090565b604051601f8501601f19908116603f011681019082821181831017156110e9576110e9611090565b8160405280935085815286868601111561110257600080fd5b858560208301376000602087830101525050509392505050565b6000806000806080858703121561113257600080fd5b61113b85610fb7565b935061114960208601610fb7565b925060408501359150606085013567ffffffffffffffff81111561116c57600080fd5b8501601f8101871361117d57600080fd5b61118c878235602084016110a6565b91505092959194509250565b600080604083850312156111ab57600080fd5b6111b483610fb7565b9150602083013567ffffffffffffffff8111156111d057600080fd5b8301601f810185136111e157600080fd5b6111f0858235602084016110a6565b9150509250929050565b6000806040838503121561120d57600080fd5b61121683610fb7565b915061122460208401610fb7565b90509250929050565b600181811c9082168061124157607f821691505b60208210810361126157634e487b7160e01b600052602260045260246000fd5b50919050565b60006001820161128757634e487b7160e01b600052601160045260246000fd5b5060010190565b6001600160a01b03858116825284166020820152604081018390526080606082018190526000906112c190830184610f5f565b9695505050505050565b6000602082840312156112dd57600080fd5b8151610cb781610f08565b600083516112fa818460208801610f3b565b83519083019061130e818360208801610f3b565b01949350505050565b601f82111561041e576000816000526020600020601f850160051c810160208610156113405750805b601f850160051c820191505b8181101561135f5782815560010161134c565b505050505050565b815167ffffffffffffffff81111561138157611381611090565b6113958161138f845461122d565b84611317565b602080601f8311600181146113ca57600084156113b25750858301515b600019600386901b1c1916600185901b17855561135f565b600085815260208120601f198616915b828110156113f9578886015182559484019460019091019084016113da565b50858210156114175787850151600019600388901b60f8161c191681555b5050505050600190811b0190555056fea2646970667358221220b18562322241e1e234d9bda9122e3fde9c67446d81ddc31238eecb7469bb51c764736f6c63430008170033","linkReferences":{}},"methodIdentifiers":{"approve(address,uint256)":"095ea7b3","balanceOf(address)":"70a08231","burn(uint256)":"42966c68","getApproved(uint256)":"081812fc","isApprovedForAll(address,address)":"e985e9c5","name()":"06fdde03","owner()":"8da5cb5b","ownerOf(uint256)":"6352211e","renounceOwnership()":"715018a6","safeMint(address,string)":"d204c45e","safeTransferFrom(address,address,uint256)":"42842e0e","safeTransferFrom(address,address,uint256,bytes)":"b88d4fde","setApprovalForAll(address,bool)":"a22cb465","supportsInterface(bytes4)":"01ffc9a7","symbol()":"95d89b41","tokenURI(uint256)":"c87b56dd","transferFrom(address,address,uint256)":"23b872dd","transferOwnership(address)":"f2fde38b"},"id":40}