{"abi":[{"type":"constructor","inputs":[{"name":"nft_addr","type":"address","internalType":"address"},{"name":"token_addr","type":"address","internalType":"address"}],"stateMutability":"nonpayable"},{"type":"function","name":"buyNFT","inputs":[{"name":"tokenID","type":"uint256","internalType":"uint256"},{"name":"amount","type":"uint256","internalType":"uint256"}],"outputs":[],"stateMutability":"nonpayable"},{"type":"function","name":"cancelListing","inputs":[{"name":"token_id","type":"uint256","internalType":"uint256"}],"outputs":[],"stateMutability":"nonpayable"},{"type":"function","name":"erc20_token","inputs":[],"outputs":[{"name":"","type":"address","internalType":"address"}],"stateMutability":"view"},{"type":"function","name":"listItem","inputs":[{"name":"token_id","type":"uint256","internalType":"uint256"},{"name":"amount","type":"uint256","internalType":"uint256"}],"outputs":[],"stateMutability":"nonpayable"},{"type":"function","name":"nft","inputs":[],"outputs":[{"name":"","type":"address","internalType":"address"}],"stateMutability":"view"},{"type":"function","name":"onERC721Received","inputs":[{"name":"operator","type":"address","internalType":"address"},{"name":"from","type":"address","internalType":"address"},{"name":"tokenId","type":"uint256","internalType":"uint256"},{"name":"data","type":"bytes","internalType":"bytes"}],"outputs":[{"name":"","type":"bytes4","internalType":"bytes4"}],"stateMutability":"pure"},{"type":"function","name":"tokenPrice","inputs":[{"name":"","type":"uint256","internalType":"uint256"}],"outputs":[{"name":"","type":"uint256","internalType":"uint256"}],"stateMutability":"view"},{"type":"function","name":"tokenSeller","inputs":[{"name":"","type":"uint256","internalType":"uint256"}],"outputs":[{"name":"","type":"address","internalType":"address"}],"stateMutability":"view"},{"type":"event","name":"ItemCanceled","inputs":[{"name":"","type":"address","indexed":false,"internalType":"address"},{"name":"","type":"uint256","indexed":false,"internalType":"uint256"}],"anonymous":false},{"type":"event","name":"ItemListed","inputs":[{"name":"","type":"address","indexed":false,"internalType":"address"},{"name":"","type":"uint256","indexed":false,"internalType":"uint256"},{"name":"","type":"uint256","indexed":false,"internalType":"uint256"}],"anonymous":false},{"type":"event","name":"NFTSold","inputs":[{"name":"","type":"address","indexed":false,"internalType":"address"},{"name":"","type":"uint256","indexed":false,"internalType":"uint256"},{"name":"","type":"uint256","indexed":false,"internalType":"uint256"}],"anonymous":false},{"type":"error","name":"NotApprovedForMarketplace","inputs":[]}],"bytecode":{"object":"0x60c060405234801561001057600080fd5b50604051610ba9380380610ba983398101604081905261002f91610062565b6001600160a01b039182166080521660a052610095565b80516001600160a01b038116811461005d57600080fd5b919050565b6000806040838503121561007557600080fd5b61007e83610046565b915061008c60208401610046565b90509250929050565b60805160a051610abf6100ea60003960008181610136015261032c01526000818160f70152818161023b015281816103d301528181610524015281816106d5015281816107e501526108d40152610abf6000f3fe608060405234801561001057600080fd5b50600436106100885760003560e01c80637707bc511161005b5780637707bc5114610131578063883efa6714610158578063d4ddce8a1461016b578063fa34d82f1461019957600080fd5b8063150b7a021461008d5780631d85bf03146100ca578063305a67a8146100df57806347ccca02146100f2575b600080fd5b6100ac61009b366004610969565b630a85bd0160e11b95945050505050565b6040516001600160e01b031990911681526020015b60405180910390f35b6100dd6100d8366004610a08565b6101c2565b005b6100dd6100ed366004610a2a565b610481565b6101197f000000000000000000000000000000000000000000000000000000000000000081565b6040516001600160a01b0390911681526020016100c1565b6101197f000000000000000000000000000000000000000000000000000000000000000081565b6100dd610166366004610a08565b61063d565b61018b610179366004610a2a565b60006020819052908152604090205481565b6040519081526020016100c1565b6101196101a7366004610a2a565b6001602052600090815260409020546001600160a01b031681565b81818060008084815260200190815260200160002054111561021b5760405162461bcd60e51b815260206004820152600d60248201526c707269636520746f6f206c6f7760981b60448201526064015b60405180910390fd5b6040516331a9108f60e11b81526004810185905230906001600160a01b037f00000000000000000000000000000000000000000000000000000000000000001690636352211e90602401602060405180830381865afa158015610282573d6000803e3d6000fd5b505050506040513d601f19601f820116820180604052508101906102a69190610a43565b6001600160a01b0316146102f15760405162461bcd60e51b8152602060048201526012602482015271037bbb732b9103737ba1034b7103a3434b9960751b6044820152606401610212565b6000848152600160205260408082205490516323b872dd60e01b81523360048201526001600160a01b039182166024820152604481018690527f0000000000000000000000000000000000000000000000000000000000000000909116906323b872dd906064016020604051808303816000875af1158015610377573d6000803e3d6000fd5b505050506040513d601f19601f8201168201806040525081019061039b9190610a67565b9050801561043857604051635c46a7ef60e11b81523060048201523360248201526044810186905260806064820152600060848201527f00000000000000000000000000000000000000000000000000000000000000006001600160a01b03169063b88d4fde9060a401600060405180830381600087803b15801561041f57600080fd5b505af1158015610433573d6000803e3d6000fd5b505050505b60408051338152602081018790529081018590527f90c126d08c53e7f57ef4e11eb379ae5bc0e2489ee38eeb36ecfcaec81fe04021906060015b60405180910390a15050505050565b60008181526001602052604090205481906001600160a01b0316158015906104b6575060008181526020819052604090205415155b6105025760405162461bcd60e51b815260206004820152601860248201527f6974656d206973204e4f5420696e20746865206c6973742100000000000000006044820152606401610212565b6040516331a9108f60e11b815260048101839052829033906001600160a01b037f00000000000000000000000000000000000000000000000000000000000000001690636352211e90602401602060405180830381865afa15801561056b573d6000803e3d6000fd5b505050506040513d601f19601f8201168201806040525081019061058f9190610a43565b6001600160a01b0316146105d95760405162461bcd60e51b81526020600482015260116024820152704e6f74206974656d2773206f776e65722160781b6044820152606401610212565b600083815260016020908152604080832080546001600160a01b03191690558282528083209290925581513381529081018590527ff86e54241e209ee4b38db8e64af9614b083d18f23c32f3293c8a87c6b8bf8943910160405180910390a1505050565b60008281526001602052604090205482906001600160a01b03161580156106705750600081815260208190526040902054155b6106b35760405162461bcd60e51b81526020600482015260146024820152736974656d20697320696e20746865206c6973742160601b6044820152606401610212565b6040516331a9108f60e11b815260048101849052839033906001600160a01b037f00000000000000000000000000000000000000000000000000000000000000001690636352211e90602401602060405180830381865afa15801561071c573d6000803e3d6000fd5b505050506040513d601f19601f820116820180604052508101906107409190610a43565b6001600160a01b03161461078a5760405162461bcd60e51b81526020600482015260116024820152704e6f74206974656d2773206f776e65722160781b6044820152606401610212565b6000610795856108b1565b9050806107b557604051634be3a2c560e01b815260040160405180910390fd5b604051635c46a7ef60e11b81523360048201523060248201526044810186905260806064820152600060848201527f00000000000000000000000000000000000000000000000000000000000000006001600160a01b03169063b88d4fde9060a401600060405180830381600087803b15801561083157600080fd5b505af1158015610845573d6000803e3d6000fd5b505050600086815260208181526040808320889055600182529182902080546001600160a01b0319163390811790915582519081529081018890529081018690527f94e7b934c857a9e3202e8ed9c1f3f96e396b7d2b5885930d2001abcb51ff58fa9150606001610472565b60405163020604bf60e21b81526004810182905260009081906001600160a01b037f0000000000000000000000000000000000000000000000000000000000000000169063081812fc90602401602060405180830381865afa15801561091b573d6000803e3d6000fd5b505050506040513d601f19601f8201168201806040525081019061093f9190610a43565b6001600160a01b031630149392505050565b6001600160a01b038116811461096657600080fd5b50565b60008060008060006080868803121561098157600080fd5b853561098c81610951565b9450602086013561099c81610951565b935060408601359250606086013567ffffffffffffffff808211156109c057600080fd5b818801915088601f8301126109d457600080fd5b8135818111156109e357600080fd5b8960208285010111156109f557600080fd5b9699959850939650602001949392505050565b60008060408385031215610a1b57600080fd5b50508035926020909101359150565b600060208284031215610a3c57600080fd5b5035919050565b600060208284031215610a5557600080fd5b8151610a6081610951565b9392505050565b600060208284031215610a7957600080fd5b81518015158114610a6057600080fdfea264697066735822122073228f82b4e05185f4fac22e742fc638ee3a744a04b8dd9005d98b56fff4e87364736f6c63430008170033","linkReferences":{}},"methodIdentifiers":{"buyNFT(uint256,uint256)":"1d85bf03","cancelListing(uint256)":"305a67a8","erc20_token()":"7707bc51","listItem(uint256,uint256)":"883efa67","nft()":"47ccca02","onERC721Received(address,address,uint256,bytes)":"150b7a02","tokenPrice(uint256)":"d4ddce8a","tokenSeller(uint256)":"fa34d82f"},"id":44}